:100000000C942A000C9447000C947D020C94470039
:100010000C9447000C9447000C9447000C94470044
:100020000C9447000C9447000C9447000C94470034
:100030000C9447000C9447000C9447000C94470024
:100040000C9447000C9447000C9447000C94470014
:100050000C94470011241FBECFE5D4E0DEBFCDBF16
:1000600010E0A0E6B0E0E4E6F7E002C005900D92F3
:10007000AA36B107D9F713E0AAE6B0E001C01D9295
:10008000AA33B107E1F70E94C8020C94B0030C94A4
:1000900000008CE085BF80E88BBF08956E9A6C9A53
:1000A000689A81E58DB90895C3988FB9779BFECF83
:1000B000C39A8FB10895C2980E9454000895C29ABD
:1000C0000E94540008959698969A80E40E945B00DE
:1000D00081EA0E945B0080EC0E945B0084EA0E943F
:1000E0005B0086EA0E945B0082EA0E945B008FE26E
:1000F0000E945B0087E20E945B0081E80E945B0037
:1001000080E10E945B008AEF0E945B0080E90E9410
:100110005B008FEA0E945B000895806B0E945B0089
:1001200008951F93182F8F700E945B0012951F7007
:10013000812F80610E945B001F9108950F931F9390
:1001400000E00FC0812F0E948D00802F0E9491003F
:1001500080E00E945F001F5F1830A1F70F5F063636
:1001600011F010E0EFCF1F910F91089510926A00E7
:1001700027C010926B001BC00E948D0080916A0006
:100180000E94910020916B0080916A0090E0FC0138
:1001900033E0EE0FFF1F3A95E1F7E81BF90BE20F92
:1001A000F11DE059FF4F10822F5F20936B0080916B
:1001B0006B00883008F380916A008F5F80936A003B
:1001C00080916A008636A8F208951BBC8ABD19BCCE
:1001D00088BD8FB580688FBD8FB580648FBD8FB5AA
:1001E00080628FBD8FB580618FBD8FB58D7F8FBDD4
:1001F0008FB581608FBD8EB58F7E8EBD8EB5877FAA
:100200008EBD8EB58B7F8EBD8EB582608EBD8EB558
:1002100081608EBD089510926A002BC010926B0011
:100220001FC00E948D0080916A000E949100209161
:100230006B0080916A0090E0FC0143E0EE0FFF1F2D
:100240004A95E1F7E81BF90BE20FF11DE059FF4F6A
:1002500080810E945F0080916B008F5F80936B00B4
:1002600080916B008830E8F280916A008F5F809304
:100270006A0080916A00863688F208950F931F9372
:100280009C018B01CB0168E070E00E948903F901B9
:1002900053E0EE0FFF1F5A95E1F7E21BF30BE60F59
:1002A000F71FE059FF4FC80168E070E00E94890322
:1002B00021E030E002C0220F331F8A95E2F78081EF
:1002C000822B80831F910F910895AF92BF92CF929E
:1002D000DF92EF92FF920F931F938C016B015C01F1
:1002E0000894A108B108C5010E943E010F5F1F4F8D
:1002F000C801B6010E943E0176010894E11CF11C80
:10030000C801B7010E943E01C501B7010E943E012C
:1003100076010894E108F108C801B7010E943E0186
:10032000C501B7010E943E01C801B6010E943E010D
:10033000C501B6010E943E011F910F91FF90EF9001
:10034000DF90CF90BF90AF9008952F923F924F9241
:100350005F926F927F928F929F92AF92BF92CF9255
:10036000DF92EF92FF920F931F93DF93CF93CDB75E
:10037000DEB72A970FB6F894DEBF0FBECDBF8C0153
:100380007B01029698878F830E943E01F801349684
:10039000FE83ED83CF01B7010E943E01C80106969E
:1003A0009C838B83B7010E943E01C801B7010E9464
:1003B0003E01F8013297FA83E983CF01B7010E9429
:1003C0003E01C80104979A878987B7010E943E01C0
:1003D000BAEF2B2EBFEF3B2E200E311EC101B7010D
:1003E0000E943E01AEEF4A2EAFEF5A2E4E0C5F1C1C
:1003F000C801B2010E943E01FCEF6F2EFFEF7F2E7D
:100400006E0C7F1CC801B3010E943E01EAEF8E2EE4
:10041000EFEF9E2E8E0C9F1CC801B4010E943E017E
:1004200072E0A72EB12CAE0CBF1CC801B5010E9412
:100430003E0164E0C62ED12CCE0CDF1CC801B601F3
:100440000E943E01E6E0F0E0EE0EFF1EC801B7019B
:100450000E943E018F819885B5010E943E018D81E9
:100460009E81B6010E943E018B819C81B7010E9452
:100470003E0189819A81B2010E943E0189859A8557
:10048000B3010E943E01C101B4010E943E018F816F
:100490009885B2010E943E018D819E81B3010E9428
:1004A0003E018B819C81B4010E943E0189819A8129
:1004B000B5010E943E0189859A85B6010E943E01E0
:1004C000C101B7010E943E012A960FB6F894DEBF23
:1004D0000FBECDBFCF91DF911F910F91FF90EF9095
:1004E000DF90CF90BF90AF909F908F907F906F9054
:1004F0005F904F903F902F9008951F920F920FB6EC
:100500000F9211242F933F934F935F936F937F9399
:100510008F939F93AF93BF93EF93FF9399991EC0CF
:1005200080916E0090916F000B9731F48FEF9FEFE9
:1005300090936F0080936E00E0916E00F0916F00D9
:100540003196F0936F00E0936E00E05AFF4F808188
:100550000E94E50080E198E40197F1F7FF91EF91A7
:10056000BF91AF919F918F917F916F915F914F91CB
:100570003F912F910F900FBE0F901F90189583EC15
:1005800087B9369A08953699FECF84B195B108950A
:10059000D098D298D198D398A798A698A198D89A8D
:1005A000DA9AD99ADB9AAF9AAE9AA99A8D9A959AC5
:1005B0008C9A949A87B3806B87BBD29ABD9ABF9A64
:1005C000BB9ABA9A8E9AC49A83EC87B9369A0E94DB
:1005D0004E0078948CE085BF80E88BBF80E00E945D
:1005E000E5000E9463000E949E000E94B6000E94E7
:1005F0000B018EE180936C0083E380936D0083E3B5
:1006000090E06EE170E00E9465010E940B01369956
:10061000FECF84B195B19498CB9916C080916D00AE
:1006200060916C00813119F481E190E006C0609323
:100630006C00815080936D0090E070E00E94650135
:100640000E940B010E94B600CA9916C080916D00ED
:1006500060916C008B3519F48BE590E006C06093D7
:100660006C008F5F80936D0090E070E00E946501E8
:100670000E940B010E94B6009F99C9CF60916C0047
:1006800080916D0090E070E00E94A5010E940B0136
:100690000E94B600CB9916C080916D0060916C00ED
:1006A000853019F485E090E006C060936C008150BD
:1006B00080936D0090E070E00E94A5010E940B0104
:1006C0000E94B600CA9916C080916D0060916C00BE
:1006D000803619F480E690E006C060936C008F5F6E
:1006E00080936D0090E070E00E94A5010E940B01D4
:1006F0000E94B6009E99CECF60916C0080916D00F3
:1007000090E070E00E9465010E940B010E94B6001B
:100710007ECF97FB092E07260AD077FD04D00CD098
:1007200006D000201AF4709561957F4F0895F6F772
:10073000909581959F4F0895AA1BBB1B51E107C05F
:10074000AA1FBB1FA617B70710F0A61BB70B881F61
:10075000991F5A95A9F780959095BC01CD010895F0
:04076000F894FFCF3B
:0A076400005A646E78828C96C8FF7C
:00000001FF
